:020000040800F2
:1000000000000220B9020008BF020008C302000875
:1000100035030008390300088103000800000000D0
:10002000000000000000000000000000611E000849
:10003000CD03000800000000211F0008851F0008F4
:10004000E5030008E5030008E5030008E5030008F0
:10005000E5030008E5030008E5030008E5030008E0
:10006000E5030008E5030008E5030008E5030008D0
:10007000E5030008E5030008E5030008E5030008C0
:10008000E5030008E5030008E5030008E5030008B0
:10009000E5030008E5030008E5030008E5030008A0
:1000A000E5030008E5030008E5030008E503000890
:1000B000E5030008E5030008E5030008E503000880
:1000C000E5030008E5030008E5030008E503000870
:1000D000E5030008E5030008E5030008E503000860
:1000E000E5030008E5030008E5030008E503000850
:1000F000E5030008E5030008E5030008E503000840
:10010000E5030008E5030008E5030008E50300082F
:10011000E5030008E5030008E5030008E50300081F
:10012000E5030008E5030008E5030008E50300080F
:10013000E5030008E5030008E5030008E5030008FF
:10014000E5030008E5030008E5030008E5030008EF
:10015000E5030008E5030008E5030008E5030008DF
:10016000E5030008E5030008E5030008E5030008CF
:10017000E5030008E5030008E503000800000000AF
:10018000E5030008E503000800B583B001F0C2F9FB
:10019000384B394A1360394A1360394900E0214627
:1001A000384B99420BD20A684B6801F10C048868FD
:1001B0009842F4D91168196004330432F8E72E4BE1
:1001C0001A68314B9A4200D0FEE72C4B1A682F4B2D
:1001D0009A42F9D1274B2E4A13602E4A13602E4BB8
:1001E00005E00020106004329342FAD80B462B4AF7
:1001F000934204D2194651F8082B5B68F4E7244B6C
:100200001B6813B9234B1B6803B1FEE701F036FAF4
:10021000694601A800F094FE214C224BE41AA41078
:100220000025AC4214DC204C204BE41AA41000251D
:10023000AC4213DC0099019801F0C6FA05461C4C4B
:100240001C4BE41AA410002C0EDC284600F014FE0F
:10025000144B53F8253098470135E2E7134B53F818
:10026000253098470135E3E7013C124B53F8243021
:100270009847E8E7BABADECA00000020140200205E
:10028000E8030008000400087856341232547698C7
:1002900018020020B83101200004000810040008F2
:1002A00010040008100400081004000810040008DE
:1002B000100400081004000808B5FFF765FF00BE31
:1002C000FEE71EF0040F0CBFEFF30880EFF3098088
:1002D0007146414A10472DE9F04182B004468846F4
:1002E000124B5E6B9F6B9D6A1B6B13F0020F03D06A
:1002F0000E4BDB6A002B0CDB0D4800F0F9FFCDF84C
:1003000000803B4632462946204601F009F800BEEF
:10031000FEE74BF6AB6101F07DF80028ECD0034B13
:100320004FF00042DA6202B0BDE8F08100ED00E07B
:100330004450000800BEFEE71EF0040F0CBFEFF3B0
:100340000880EFF309807146244A10472DE9F041F7
:1003500082B004468846084B5E6B9F6B9D6A0748D7
:1003600000F0C6FFCDF800803B46324629462046C5
:1003700000F0D6FF00BEFEE700ED00E0545000089C
:100380001EF0040F0CBFEFF30880EFF309807146F5
:10039000134A10472DE9F04182B004468846084BC5
:1003A0005E6B9F6B9D6A074800F0A2FFCDF800804E
:1003B0003B4632462946204600F0B2FF00BEFEE72B
:1003C00000ED00E06050000800BEFEE700BEFEE762
:1003D00000BEFEE770470000D70200084D0300088A
:0803E0009503000800BEFEE7D2
:1003E80098530008000000201802002098530008C5
:1003F800000000100000001018020020BC3101208D
:080408000000001000000010CC
:1004100010B504460E4B18784FF47A73B3FBF0F323
:100420000C4A1068B0FBF3F000F09CF868B90F2C90
:1004300001D901200AE0002221464FF0FF3000F0F0
:100440004BF8054B1C60002000E0012010BD00BFF0
:10045000040000200C0000200800002008B50B4B11
:100460001A6842F400721A601A6842F480621A60D4
:100470001A6842F480721A60032000F00FF80F200F
:10048000FFF7C6FF01F080FB002008BD003C0240E2
:10049000014B1868704700BF4C31012010B504466D
:1004A000C31E042B0FD80A4AD36823F4E0631B044D
:1004B0001B0C240204F4E064234343F0BF6343F4C1
:1004C0000033D36010BD9221024801F0DFF8EAE763
:1004D00000ED00E0C04E000870B505460C4616461B
:1004E0000F2A25D80F2C28D81B4BDB68C3F3022317
:1004F000C3F10702042A28BF0422191D062921D9A5
:10050000033B4FF0FF3101FA02F224EA02049C405F
:1005100001FA03F326EA03063443002D14DB240119
:10052000E4B205F1604505F5614585F8004370BD0D
:10053000AA210A4801F0AAF8D4E7AB21074801F044
:10054000A5F8D1E70023DCE705F00F052401E4B2AC
:10055000034B5C55EBE700BF00ED00E0C04E000828
:1005600014ED00E00138B0F1807F0AD2064B5860EC
:10057000064AF02182F823100020986007221A60B2
:1005800070470120704700BF10E000E000ED00E080
:1005900010B50446042800D038B9042C0BD0094A01
:1005A000136823F00403136010BD40F2C91106481C
:1005B00001F06CF8F1E7034A136843F00403136099
:1005C000F2E700BF10E000E0C04E0008002800F095
:1005D000648270B582B0044603680F2B39D8236853
:1005E00013F0010F4DD063682BB1B3F5803F02D0FB
:1005F000B3F5A02F32D1A54B9B6803F00C03042B5D
:1006000036D0A24B9B6803F00C03082B2BD06368F9
:10061000B3F5803F5FD0B3F5A02F62D09B4B1A6833
:1006200022F480321A601A6822F480221A60636809
:10063000002B60D0FFF72CFF0546944B1B6813F48A
:10064000003F1ED1FFF724FF401B6428F5D903208B
:1006500028E2E8218E4801F019F8C0E7ED218C4826
:1006600001F014F8C7E7894B5B6813F4800FCED014
:10067000864B1B6813F4003F03D06368002B00F027
:100680000E82236813F0020F67D0E368012B41D874
:1006900023691F2B44D87D4B9B6813F00C0F4AD065
:1006A0007A4B9B6803F00C03082B3FD0E368002BC8
:1006B00077D0784B01221A60FFF7EAFE0546734BAC
:1006C0001B6813F0020F63D1FFF7E2FE401B022804
:1006D000F5D90320E6E16D4A136843F480331360D3
:1006E000A5E76A4B1A6842F480221A601A6842F43D
:1006F00080321A609BE7FFF7CBFE0546634B1B6811
:1007000013F4003FBDD0FFF7C3FE401B6428F5D9AA
:100710000320C7E140F21F115D4800F0B7FFB7E7C3
:100720004FF490715A4800F0B1FFB4E7574B5B6843
:1007300013F4800FBAD1554B1B6813F0020F04D08D
:10074000E368012B01D00120ACE1504A136823F08B
:10075000F803216943EAC1031360236813F0080F0B
:1007600049D06369012B2ED8636993B34A4B0122A8
:100770001A60FFF78DFE0546444B5B6F13F0020FC6
:1007800039D1FFF785FE401B0228F5D9032089E106
:100790003E4A136823F0F803216943EAC10313605A
:1007A000DBE73C4B00221A60FFF772FE0546374B31
:1007B0001B6813F0020FD0D0FFF76AFE401B02281F
:1007C000F5D903206EE14FF4B071314800F05EFFBF
:1007D000CAE7314B00221A60FFF75AFE05462B4B41
:1007E0005B6F13F0020F06D0FFF752FE401B02288A
:1007F000F5D9032056E1236813F0040F00F0878039
:10080000A368012B01D9052B38D1204B1B6C13F0A9
:10081000805F39D1002301931C4B1A6C42F0805247
:100820001A641B6C03F080530193019B01251B4B41
:100830001B6813F4807F33D0A368012B44D0052BB1
:1008400048D0124B1A6F22F001021A671A6F22F079
:1008500004021A67A368002B46D0FFF719FE06466C
:100860000A4B1B6F13F0020F4FD1FFF711FE801BD5
:1008700041F288339842F3D9032013E14FF4C67153
:10088000034800F003FFC0E70025D0E7003802402E
:10089000F44E000800004742800E474200700040BE
:1008A000834A136843F480731360FFF7F1FD064633
:1008B0007F4B1B6813F4807FBED1FFF7E9FD801BDF
:1008C0000228F5D90320EDE07A4A136F43F00103C3
:1008D0001367BFE7774B1A6F42F004021A671A6F6B
:1008E00042F001021A67B5E7FFF7D2FD0646714BE9
:1008F0001B6F13F0020F08D0FFF7CAFD801B41F2F7
:1009000088339842F3D90320CCE0002D3BD1A36972
:10091000022B3ED8A369002B00F0C380654A926881
:1009200002F00C02082A00F09080022B79D1E369D2
:1009300013B1B3F5800F32D1236A3F2B35D8636AE8
:10094000323BB3F5BF7F36D8A36A022B05D0042B08
:1009500003D0062B01D0082B33D1E36A023B0D2BC9
:1009600035D8554B00221A60FFF792FD0546514BD2
:100970001B6813F0007F30D0FFF78AFD401B022870
:10098000F5D903208EE04B4A136C23F08053136497
:10099000BDE740F2CF11494800F078FEBAE74FF4C6
:1009A000EC71464800F072FEC6E740F2D9114348A8
:1009B00000F06CFEC3E74FF4ED71404800F066FEB6
:1009C000C2E740F2DB113D4800F060FEC5E74FF49E
:1009D000EE713A4800F05AFEC3E7E369226A134316
:1009E000626A43EA8213A26A5208013A43EA024366
:1009F000E26A43EA02632F4A53602F4B01221A60D6
:100A0000FFF746FD04462B4B1B6813F0007F06D111
:100A1000FFF73EFD001B0228F5D9032042E000202D
:100A200040E0254B00221A60FFF732FD0446214BBF
:100A30001B6813F0007F06D0FFF72AFD001B022879
:100A4000F5D903202EE000202CE0012B2CD0194BEF
:100A50005B6803F48001E269914201D0012021E04A
:100A600003F03F02216A8A4201D001201AE0616A44
:100A700047F6C0721A408A4201D0012012E003F406
:100A80004032A16A8A4201D001200BE003F070637A
:100A9000E26A93420AD0012004E00120704701205D
:100AA00000E0002002B070BD0120FBE70020F9E764
:100AB000007000400038024060004742F44E0008D9
:100AC000324B9B6803F00C03042B5CD0082B01D045
:100AD0002F4870472DE9F04B2C4B5A6802F03F022B
:100AE0005B6813F4800F2BD0284B5B68C3F388132B
:100AF0001E4600275C010025E41A65EB0705A901E5
:100B000041EA9461A001001B61EB0501CB0043EABF
:100B10005073C400A01943EB07014B0243EAD053C2
:100B2000440220461946002302F01EFE174B5B6864
:100B3000C3F3014301335B00B0FBF3F0BDE8F08B7E
:100B4000124B5B68C3F388131E4600275C01002527
:100B5000E41A65EB0705A90141EA9461A001001BB5
:100B600061EB0501CB0043EA5073C400A01943EBCD
:100B700007018B0243EA9053840220461946002362
:100B800002F0F2FDD2E70348704700BF0038024090
:100B90000024F40000127A00002800F0FA8070B5FA
:100BA00004460D460368013B0E2B11D8072D15D8BE
:100BB0007A4B1B6803F00F03AB4215D2EBB2774AB6
:100BC0001370136803F00F03AB420DD0012070BD0A
:100BD00040F25121724800F059FDE7E740F25221FE
:100BE0006F4800F053FDE3E7236813F0020F29D0AC
:100BF00013F0040F04D06B4A936843F4E0539360FE
:100C0000236813F0080F04D0664A936843F46043E6
:100C10009360A3687BB1802B0DD0902B0BD0A02BC1
:100C200009D0B02B07D0C02B05D0D02B03D0E02BA0
:100C300001D0F02B33D15B4A936823F0F003A16815
:100C40000B439360236813F0010F42D06368032BBA
:100C50002BD86368012B2ED09A1E012A32D9514A13
:100C6000126812F0020F00F096804E498A6822F056
:100C7000030213438B60FFF70BFC0646494B9B684E
:100C800003F00C036268B3EB820F22D0FFF700FC85
:100C9000801B41F288339842F0D9032097E740F255
:100CA00075213F4800F0F2FCC5E74FF41F713C4846
:100CB00000F0ECFCCDE73B4A126812F4003FD4D1BF
:100CC000012084E7374A126812F0007FCDD101205D
:100CD0007DE7324B1B6803F00F03AB4209D9EAB240
:100CE0002E4B1A701B6803F00F03AB4201D001209A
:100CF0006DE7236813F0040F14D0E3685BB1B3F51C
:100D0000805F08D0B3F5A05F05D0B3F5C05F02D017
:100D1000B3F5E05F31D1234A936823F4E053E168EF
:100D20000B439360236813F0080F15D023695BB160
:100D3000B3F5805F08D0B3F5A05F05D0B3F5C05F11
:100D400002D0B3F5E05F1ED1164A936823F46043E6
:100D5000216943EAC1039360FFF7B2FE114B9B6820
:100D6000C3F30313104AD35CD840104B1860104BE8
:100D70001868FFF74DFB002029E740F2BA21084828
:100D800000F084FCC7E740F2C121054800F07EFC7A
:100D9000DAE701207047012019E700BF003C02405C
:100DA000F44E000800380240705000080C0000208B
:100DB00008000020014B1868704700BF0C0000209D
:100DC00008B503460C4A12685AB10B4A106803333F
:100DD00023F003030344094A934206D8064A1360EA
:100DE00008BD054A06491160EFE702F03DFE0C23FD
:100DF00003604FF0FF30F3E71C02002000FC0120ED
:100E0000BC31012030B51324002520462946ABBE55
:100E10000446204630BD38B5044602F025FE05469E
:100E2000FFF7F0FF2860204638BDB0F1FF3F00D04B
:100E3000704708B5FFF7EFFF08BD000010B5044686
:100E40000B4B186808B1836B5BB1132C0CD8094BA2
:100E500053F83430B3F1FF3F08D0064800EBC4002C
:100E600010BD02F047FEF0E70020F9E70020F7E7A9
:100E700044000020A402002000B530B9044D18241D
:100E800020462946ABBE0446FEE7024DF7E700BF09
:100E900026000200230002002DE9F04184B0234F18
:100EA00001970326039600230293012401AD2046F7
:100EB0002946ABBE80461E4BC3F8008001970396BF
:100EC0000423029320462946ABBE8046194BC3F843
:100ED0000080019703960823029320462946ABBE63
:100EE0000446154B1C60B4F1FF3F01D000230AE01B
:100EF000104B1A68104B1A60F8E7104A4FF0FF3198
:100F000042F833100133132BF7DD0C4B084A1268FB
:100F10001A6000225A60074909689960DA60064938
:100F2000096819615A6104B0BDE8F081244F0008D6
:100F30009C020020A002002098020020A4020020B1
:100F40002DE9F04F83B083468A462F4B00934F2301
:100F5000019315266C4630462146ABBE0646002E50
:100F60003DD1B146284B002283F84F20009D3746E3
:100F7000B04617E002F048FE204490F90130002B03
:100F80000FDB092C0DD0082E27DC222C01D0272CBA
:100F900001D1013527461D4B43F8265001364FF04D
:100FA0000108013595F90040BCB1B8F1000FE1D05E
:100FB00037B1A742F5D100232B704F46C846F0E762
:100FC00002F022FE204490F90130002B01DB092CB5
:100FD000E7D100232B70B846E3E70EB106E0002608
:100FE000094B00221A70094A13600136074B002290
:100FF00043F82620CBF80060CAF80030FFF74CFF1A
:1010000003B0BDE8F08F00BF200200207002002076
:1010100030B585B0019002910392062401AD2046BF
:101020002946ABBE04462046FFF7FFFE05B030BDA3
:1010300070B50E461546FFF701FF68B104462A4613
:1010400031460068FFF7E4FFB0F1FF3F03D0281AF4
:1010500063680344636070BD02F006FD092303600A
:101060004FF0FF30F7E7F0B583B00C461546FFF7B9
:10107000E5FEC0B10646022D1CD8012D21D0022D5F
:1010800035D03368009301940A256F4628463946C7
:10109000ABBE05462846FFF7C8FE00283BDB746060
:1010A000204603B0F0BD02F0DFFC092303604FF0DF
:1010B000FF30F6E702F0D8FC162303604FF0FF3054
:1010C000EFE74368E418DCD502F0CEFC162303609A
:1010D0007368002B1CDD002C02DC4FF0FF30E0E7D2
:1010E00002F0C2FC8B2303604FF0FF30D9E70368A6
:1010F00002AF47F8083D0C2528463946ABBE0546E9
:101100002846FFF792FEB0F1FF3FCAD00444B8E78B
:101110004FF0FF30C5E74FF0FF30C2E708B5FFF7EB
:10112000A2FF08BD30B585B001900291039205245D
:1011300001AD20462946ABBE04462046FFF775FEAA
:1011400005B030BD70B50E461446FFF777FE70B19E
:101150000546224631460068FFF7E4FF021E11DB18
:10116000A01A6B6803446B60944207D070BD02F014
:101170007BFC092303604FF0FF30F7E70020FFF707
:101180004AFEF3E74FF0FF30F0E730B583B002AD31
:1011900045F8040D022420462946ABBE04462046ED
:1011A000FFF743FE03B030BD38B50446FFF746FEF7
:1011B00090B10546013C012C04D80D4B9A681B697F
:1011C0009A4210D02868FFF7E0FF034610B94FF0AD
:1011D000FF322A60184638BD02F046FC092303603E
:1011E0004FF0FF33F6E74FF0FF3303600023F1E7E2
:1011F000A402002070B50C46FFF720FEA8B10646F9
:10120000636843F4005363604FF4806363640C25A8
:1012100028463146ABBE05462846FFF706FEB0F12C
:10122000FF3F01D02061002070BD02F01DFC0923AA
:1012300003604FF0FF30F7E738B505460C465822FB
:101240000021204602F00BFD21462846FFF7D2FF81
:1012500038BD38B5FFF7F2FD80B1054609242046B8
:101260002946ABBE04462046012C06D002F0FCFB0A
:101270000446FFF7C7FD2060002038BD02F0F4FBF4
:10128000092303600020F8E72DE9F04385B0044608
:101290000F4643560BB10E461EE004252846214654
:1012A000ABBE0446384605B0BDE8F08314F9011B17
:1012B00004AA1A4402F8101C0133AB42F6D304AA64
:1012C0001344002203F8102C4FF00408E94640466E
:1012D0004946ABBE8046761B002EE3D03546102E25
:1012E00028BF10250023E8E708B5FFF7CDFF08BDAC
:1012F0000FB400B583B004AB53F8042B01938021E5
:10130000064802F07DFE002803DD01460348FFF792
:10131000EBFF03B05DF804EB04B07047440300201A
:10132000F8B504460D4617461E462748FFF7E0FF6E
:1013300021682648FFF7DCFF61682548FFF7D8FFE2
:10134000A1682448FFF7D4FFE1682348FFF7D0FFE6
:1013500021692248FFF7CCFF61692148FFF7C8FFE8
:10136000A1692048FFF7C4FFE1691F48FFF7C0FFEC
:101370001E48FFF7BDFF29461D48FFF7B9FF1D4C6A
:10138000E16A1D48FFF7B4FF216B1C48FFF7B0FF6F
:10139000E16B1B48FFF7ACFF15F0800F0AD115F485
:1013A000004F0CD11748FFF7A3FF06991648FFF727
:1013B0009FFFF8BD39461548FFF79AFFEFE7314622
:1013C0001348FFF795FFEDE7284F0008384F000856
:1013D000484F0008584F0008684F0008784F000831
:1013E000884F0008984F0008A84F0008B84F000821
:1013F000C44F000800ED00E0D44F0008E44F00089F
:10140000F44F0008245000082C5000080450000835
:101410001450000838B583691B888B4201D0002026
:1014200038BD044603684568013B302B69D8DFE8C6
:1014300003F046211C1C5E30332D19196819191947
:10144000191936192468192768396868686868683E
:10145000686868686868686868686868686868680C
:10146000681919004FF0FF330360A3690233A361C9
:101470000120D5E700230360F7E700230360F4E7CA
:1014800000232B606B60AB60EB60EEE70023036032
:10149000EBE7AB680360E8E700230360E5E70023C0
:1014A0000360E2E7BFF34F8F1749CA6802F4E062B6
:1014B000164B1343CB60BFF34F8F00BFFDE71449BA
:1014C000286802F066FD40B96B6813B901232360F8
:1014D000CBE7042B05D0082B06D04FF0FF33236059
:1014E000C3E702232360C0E703232360BDE72B6823
:1014F000023B012B02D9AB680360B6E7002303600F
:10150000B3E700208CE700BF00ED00E00400FA051F
:10151000244F000808B500F009F8024A024B9A600F
:1015200008BD00BF0000000800ED00E0024B4FF0D6
:1015300000629A60704700BF00ED00E0224B9B689C
:1015400003F00C03042B14D0082B16D01BB11F4B37
:101550001F4A1A6002E01D4B1D4A1A601A4B9B6815
:10156000C3F303131B4AD15C184A1368CB401360C2
:101570007047164B184A1A60F0E7134B5A685B68BD
:1015800003F03F0312F4800F13D0134AB2FBF3F2BF
:101590000D4B5B68C3F3881303FB02F30A4A5268DE
:1015A000C2F3014201325200B3FBF2F3074A136067
:1015B000D4E7074AB2FBF3F2034B5B68C3F388132B
:1015C00003FB02F3EAE700BF003802400C000020F2
:1015D0000024F4007050000800127A0030B595B075
:1015E00000240194224B1A6C42F080521A641B6C46
:1015F00003F080530193019B02941E4B1A6842F43E
:1016000080421A601B6803F480430293029B01230B
:1016100008934FF4803309934FF480030F9308230A
:1016200010934FF4A8731193022512950723139377
:101630000E9508A8FEF7CAFF0F230393049505949F
:101640004FF4A05306934FF480530793052103A84A
:10165000FFF7A2FAFFF7AEFB074BA3FB00308009B0
:10166000FEF780FF0420FEF793FF15B030BD00BFEA
:101670000038024000700040D34D621008B5FEF7FC
:10168000EDFEFFF7ABFFFFF759FF08BD08B50A46AF
:1016900001460248FFF72CFEFEE700BF805000081D
:1016A00070B586B0012806D002280BD0244B1D68E7
:1016B000244C254E03E0254B1D68254C254E01F09A
:1016C0008FFA21E0244B1D68244C254EF7E7336840
:1016D0000133336002F0A2FB224B1B68224A52F80E
:1016E0002320224951F82330D21AB0FBF2F102FB39
:1016F000110003444FF47A7000FB03F01C4BA3FB72
:101700000030800901F07EFB00234FF0FF321946C4
:10171000284600F089FF01F063FA0346154A1421B8
:1017200001A802F0BFFB00231A4601A91248006875
:1017300000F056FE0128CAD0236801332360C9E7B0
:1017400064310120CC030020E0030020543101204B
:10175000C4030020D80300206C310120C8030020FE
:10176000DC030020D003002028000020100000200F
:10177000D34D6210C85100086831012008B501F04E
:10178000E0FF012809D002280FD000231A4619468D
:101790000A48006800F024FE08BD00231A461946D6
:1017A0000748006800F01CFEF6E700231A461946B9
:1017B0000448006800F014FEEEE700BF6431012029
:1017C000543101206C31012080B582B000221421F7
:1017D0000A2000F0E0FD4C4B18600322002101209C
:1017E00000F0D9FD494B186003220021012000F0D0
:1017F000D2FD474B186003220021012000F0CBFDF1
:10180000444B186003220021012000F0C4FD424B2C
:101810001860424E00240194012500952B46822237
:101820003F49304601F04EF901940095022382228F
:101830003C49304601F046F9019402270097032302
:1018400082223949304601F03DF901940095234642
:1018500082223649364801F035F9364E00962B463D
:101860002A469621344801F0E3FDDFF8E890C9F8F4
:10187000000000963B462A469621304801F0D8FDEC
:10188000DFF8D480C8F80000009603232A4696218A
:101890002B4801F0CDFD2B4F38602B4B0093234696
:1018A0002A466421294801F0C3FD294E3060D9F849
:1018B000009001F095F900942346024629464846D7
:1018C00001F0D0FDD8F8008001F08AF90094234699
:1018D00002462946404601F0C5FD3F6801F080F907
:1018E0000094234602462946384601F0BBFD36687F
:1018F00001F076F90094234602462946304601F06D
:10190000B1FD01F011F9FEE76831012054310120E9
:101910006C3101206431012074310120A1160008CE
:10192000B0500008BC500008C8500008D45000084F
:10193000E51A00087D170008E0500008F050000884
:101940000051000870310120451B000810510008AB
:1019500060310120583101205C3101202DE9F04730
:1019600082B04B4802F052FADFF86C91DFF86CA1BC
:10197000D9F80020DAF80010464802F0D3F9464FB3
:10198000DFF85C813A68D8F80010444802F0CAF9E0
:10199000434D444E2A683168434802F0C3F9434C32
:1019A0002168434802F0BEF90021CAF80010C9F8C6
:1019B0000010C8F8001039603160296021603D4B8B
:1019C000186800F095FC3C4A136801331360052B3E
:1019D00037D83A4F57F823204FF47A7404FB02F2B9
:1019E000374EA6FB0232374B1868002500952B4670
:1019F0009209042101F036FDDFF8BC80D8F80030F0
:101A000057F8232004FB02F2A6FB02322E4B186883
:101A100000952B469209042101F024FDD8F80030EE
:101A200057F8232004FB02F2A6FB0232274B18686A
:101A300000952B469209042101F014FD02B0BDE887
:101A4000F087234802F0E2F91E4B18680024009446
:101A500023462246032101F005FD1B4B1868009424
:101A600023462246032101F0FDFC184B1868009420
:101A700023462246032101F0F5FC164B186800941A
:101A800023462246032101F0EDFC01F08FF8D5E753
:101A9000305100083C510008C80300206051000884
:101AA000CC030020E003002084510008D403002070
:101AB000AC51000868310120D0030020280000202C
:101AC000D34D6210583101205C310120703101206A
:101AD000BC51000860310120C4030020D80300205D
:101AE000DC03002000B587B001F07AF804E0114B68
:101AF0001B68B3F57A7F19D200234FF0FF321946E5
:101B00000D48006800F090FD00231A4601A90B481B
:101B1000006800F089FD0128E9D1064A1368013305
:101B2000136001A9064802F0FDF8E0E7FFF716FF91
:101B3000E2E700BFD40300207431012068310120A6
:101B40002051000808B500231A46194606480068C7
:101B500000F046FC054B1B68B3F57A7F00D208BD48
:101B6000FFF7FCFEFBE700BF74310120D403002027
:101B7000FEE7FEE700B583B000F02CF90190019B71
:101B800003B05DF804FB704770470000124A12F082
:101B9000070F1ED0D11D21F00701C1F59633134464
:101BA0000A460E480260002141601344083B23F0BE
:101BB00007030B48036059601960991A516013605C
:101BC000084B1960084B1960084B4FF000421A602F
:101BD00070474FF49633E4E7E8030020F42F012028
:101BE000E4030020F02F0120EC2F0120E82F01203A
:101BF00010B4134B1A6882421BD359685C18844294
:101C000003D1406801445960184641684418A24213
:101C100013D10C4C2468A2420DD05268114441608B
:101C20001A6812680260984200D018605DF8044B90
:101C300070471346DEE70460F5E70260F3E700BF94
:101C4000F42F0120E403002070B5044600F0C0FF2B
:101C50003F4B1B68A3B13F4B1B681C4213D001F0E4
:101C600057F80026FFF784FF16F0070F6ED04FF0ED
:101C7000500383F31188BFF36F8FBFF34F8FFEE7DD
:101C8000FFF784FFE7E794B1083414F0070F0ED094
:101C900024F00704083404F0070343B14FF0500365
:101CA00083F31188BFF36F8FBFF34F8FFEE734B11B
:101CB000294B1B68A34206D3284B1D6809E001F09D
:101CC00027F80026CEE701F023F80026CAE72B46C6
:101CD00015466A68A24202D22A68002AF7D11C4A35
:101CE0001268AA4214D01E6808362A681A606B6807
:101CF0001B1B102B14D9281910F0070F0CD04FF014
:101D0000500383F31188BFF36F8FBFF34F8FFEE74C
:101D100000F0FEFF0026A5E743606C60FFF768FF58
:101D20006A680D490B689B1A0B600D4909688B4264
:101D300001D20B490B60074B1B6813436B600023F8
:101D40002B6000F0E5FF002E8ED18BE7304670BD92
:101D5000E4030020E82F0120EC2F0120F42F0120C4
:101D6000F02F012080B338B50446A0F1080550F8E3
:101D7000042C164909680A4208D14FF0500383F336
:101D80001188BFF36F8FBFF34F8FFEE750F8080C39
:101D900040B14FF0500383F31188BFF36F8FBFF34F
:101DA0004F8FFEE722EA010244F8042C00F010FFF6
:101DB00054F8041C064A13680B4413602846FFF7C6
:101DC00017FF00F0A5FF38BD704700BFE82F0120C6
:101DD000EC2F0120014B1868704700BFEC2F012049
:101DE0000B4B1B68B3F1FF3F08D04FF0500383F358
:101DF0001188BFF36F8FBFF34F8FFEE74FF0500393
:101E000083F31188BFF36F8FBFF34F8FFEE700BFDF
:101E10004000002006480068006880F3088862B629
:101E200061B6BFF34F8FBFF36F8F00DF00BF0000BD
:101E300008ED00E04FF0807340F8043C21F0010110
:101E400040F8081C054B40F80C3C40F8202C6FF083
:101E5000020340F8243C4438704700BFE11D0008ED
:101E6000074B19680868B0E8F04F80F30988BFF3A2
:101E70006F8F4FF0000080F311887047AFF3008040
:101E800004300120074B1B68B3F57A7F08D04FF070
:101E9000500383F31188BFF36F8FBFF34F8FFEE7BB
:101EA000704700BF400000204FF0500383F31188BB
:101EB000BFF36F8FBFF34F8F0A4A1368013313606C
:101EC000012B00D07047084B1B6813F0FF0FF9D0AF
:101ED0004FF0500383F31188BFF36F8FBFF34F8F21
:101EE000FEE700BF4000002004ED00E0094B1B6846
:101EF00043B94FF0500383F31188BFF36F8FBFF3E3
:101F00004F8FFEE7013B034A13600BB983F311883F
:101F1000704700BF400000200000000000000000EB
:101F2000EFF30980BFF36F8F154B1A681EF0100F87
:101F300008BF20ED108A20E9F04F10604DF8043DF5
:101F40004FF0500080F31188BFF34F8FBFF36F8FB6
:101F500000F0C4FF4FF0000080F3118808BC19683E
:101F60000868B0E8F04F1EF0100F08BFB0EC108A00
:101F700080F30988BFF36F8F704700BFAFF3008015
:101F80000430012008B54FF0500383F31188BFF3EC
:101F90006F8FBFF34F8F00F029FE18B1034B4FF046
:101FA00080521A60002383F3118808BD04ED00E01D
:101FB000064B1B68064AA2FB03239B09013B054A0B
:101FC0001360054B07221A60704700BF0C00002009
:101FD000D34D621014E000E010E000E0304B1A68CE
:101FE000304B9A420DD02E4B1A682F4B9A4211D18A
:101FF0004FF0500383F31188BFF36F8FBFF34F8F00
:10200000FEE74FF0500383F31188BFF36F8FBFF3E8
:102010004F8FFEE700B583B0244B1A78D2B20192FD
:10202000FF221A701B78DBB28DF803309DF8033065
:1020300003F050031E4A13701E4B07221A609DF8CE
:10204000033013F0800F0AD01A4A1368013B136063
:102050009DF803305B00DBB28DF80330EFE7154AE3
:1020600013681B0203F4E0631360019BDBB20F4AA9
:102070001370114B1A6842F470021A601A6842F029
:1020800070421A60FFF794FF0C4B00221A600C4A52
:10209000136843F040431360FFF7BCFEFFF7A0FE58
:1020A00000ED00E071C20F4170C20F4100E400E09A
:1020B000FC2F01200030012020ED00E04000002036
:1020C00034EF00E0EFF305830F2B0FD9104A9B5C30
:1020D000DBB2104A12789A4208D94FF0500383F3CA
:1020E0001188BFF36F8FBFF34F8FFEE70A4B1B685A
:1020F00003F4E063094A1268934208D94FF0500391
:1021000083F31188BFF36F8FBFF34F8FFEE77047E4
:10211000F0E300E0FC2F01200CED00E00030012096
:1021200000F1080343604FF0FF328260C360036137
:1021300000230360704700230361704743684B60CE
:102140009A688A609A6851609960086103680133EF
:102150000360704730B40D68B5F1FF3F02D000F165
:10216000080202E0026904E01A4653681C68AC42A7
:10217000FAD953684B6099608A60516008610368BE
:102180000133036030BC7047036942688168916025
:102190008268416851605A68824205D0002202611B
:1021A000186801381860704782685A60F6E710B501
:1021B0000446FFF779FEA26BE36B9A4204D0002439
:1021C000FFF794FE204610BD0124F9E710B5044640
:1021D000FFF76AFEA36B23B10024FFF787FE2046BA
:1021E00010BD0124F9E770B504461646856B026CF4
:1021F0005AB903681BB100200135A56370BD406862
:1022000001F006F800236360F6E76EB9806801F01C
:102210001BFD226CA3681344A3606268934219D328
:102220002368A3600020E7E7C06801F00DFD226C81
:102230005242E3681344E36021688B4202D2636830
:102240001A44E260022E01D00020D5E725B1013DFD
:102250000020D1E70020CFE70020CDE7026C72B16B
:1022600010B5C3681344C3604468A34201D3036834
:10227000C3600C46C168204601F0E6FC10BD704703
:1022800038B50546FFF710FE95F8454064B203E007
:1022900000F058FF013C64B2002C08DD6B6A33B1DA
:1022A00005F1240000F0B2FE0028F3D0F0E7FF2390
:1022B00085F84530FFF71AFEFFF7F6FD95F8444024
:1022C00064B203E000F03EFF013C64B2002C08DD84
:1022D0002B6933B105F1100000F098FE0028F3D00F
:1022E000F0E7FF2385F84430FFF700FE38BD00001B
:1022F00038B540B94FF0500383F31188BFF36F8FA7
:10230000BFF34F8FFEE704460D46FFF7CDFD216872
:10231000E26B236C03FB021060600020A063A160ED
:10232000013A02FB0313E360FF2384F8443084F88E
:102330004530A5B923691BB9FFF7D8FD012038BD89
:1023400004F1100000F062FE0028F5D0084B4FF0B9
:1023500080521A60BFF34F8FBFF36F8FECE704F129
:102360001000FFF7DDFE04F12400FFF7D9FEE3E7DC
:1023700004ED00E038B51D46049C0B4649B12260CF
:10238000E063236401212046FFF7B2FF84F84C503C
:1023900038BD2460F4E740B94FF0500383F311884F
:1023A000BFF36F8FBFF34F8FFEE7F0B583B00546E5
:1023B00011B101FB00F000E0002017460C46503040
:1023C000FFF742FC064638B100903B4600F1500250
:1023D00021462846FFF7CEFF304603B0F0BD00008F
:1023E000F0B585B0019260B1044699B9026C8AB12A
:1023F0004FF0500383F31188BFF36F8FBFF34F8FFC
:10240000FEE74FF0500383F31188BFF36F8FBFF3E4
:102410004F8FFEE7022B0BD1E26B012A08D04FF061
:10242000500383F31188BFF36F8FBFF34F8FFEE725
:102430001E460F4600F08CFE50B9019B53B14FF081
:10244000500383F31188BFF36F8FBFF34F8FFEE705
:1024500000253AE0002538E0324639462046FFF7AD
:10246000C2FE636A4BB9A8B13B4B4FF080521A6071
:10247000BFF34F8FBFF36F8F0CE004F1240000F027
:10248000C5FD38B1344B4FF080521A60BFF34F8F07
:10249000BFF36F8FFFF72AFD012005B0F0BDFFF7F6
:1024A00025FD0020F9E702A800F0F6FD012519E05E
:1024B000002384F8443021E0002384F8453023E0F1
:1024C0002046FFF7DDFE00F023FCFFF7EDFCA26BDA
:1024D000E36B9A42C0D3022EBED0019B002BDED00C
:1024E000002DE0D0FFF702FD00F072FBFFF7DCFCEF
:1024F00094F844305BB2B3F1FF3FD9D094F8453043
:102500005BB2B3F1FF3FD7D0FFF7F0FC01A902A8FF
:1025100000F0D8FDC8B92046FFF749FE0028CFD00B
:10252000019904F1100000F03DFD2046FFF7A8FEE0
:1025300000F0EEFB0028C8D1074B4FF080521A6024
:10254000BFF34F8FBFF36F8FBFE72046FFF798FEB3
:1025500000F0DEFB0020A0E704ED00E02DE9F843E9
:1025600060B1044699B9006C88B14FF0500383F311
:102570001188BFF36F8FBFF34F8FFEE74FF050030B
:1025800083F31188BFF36F8FBFF34F8FFEE7022BEA
:102590000BD1E06B012808D04FF0500383F3118872
:1025A000BFF36F8FBFF34F8FFEE71F4690468946FC
:1025B000FFF788FDEFF311864FF0500383F3118886
:1025C000BFF36F8FBFF34F8FA26BE36B9A4203D3BE
:1025D000022F01D000200FE094F845506DB23A462A
:1025E00049462046FFF7FFFDB5F1FF3F08D06B1CC1
:1025F0005BB284F84530012086F31188BDE8F8838A
:10260000636A5BB104F1240000F000FD40B1B8F151
:10261000000F07D00120C8F80000EDE70120EBE72C
:102620000120E9E70120E7E72DE9F04184B00192BC
:1026300060B1044699B9026C8AB14FF0500383F33C
:102640001188BFF36F8FBFF34F8FFEE74FF050033A
:1026500083F31188BFF36F8FBFF34F8FFEE71F46E1
:10266000884600F075FD50B9019B53B14FF05003FF
:1026700083F31188BFF36F8FBFF34F8FFEE7002600
:102680005FE000265DE0E66841462046FFF7E6FD94
:10269000DFB9013DA563236813B900F011FE606046
:1026A000236963B104F1100000F0B0FC38B1464B6F
:1026B0004FF080521A60BFF34F8FBFF36F8FFFF759
:1026C00015FC012004B0BDE8F081E660636A002BD0
:1026D000F5D004F1240000F099FC0028EFD03A4B2B
:1026E0004FF080521A60BFF34F8FBFF36F8FE6E752
:1026F000FFF7FCFB0020E5E702A800F0CDFC012677
:1027000029E0002384F8443031E0002384F8453088
:1027100033E0FFF7C9FB606800F02AFDFFF7E6FB36
:102720003BE02046FFF7ACFD00F0F2FA09E020465E
:10273000FFF7A6FD00F0ECFA2046FFF747FD002862
:1027400040D1FFF7B1FBA56B002D9CD1019B002B65
:10275000CED0002ED0D0FFF7C9FB00F039FAFFF73A
:10276000A3FB94F844305BB2B3F1FF3FC9D094F8B7
:1027700045305BB2B3F1FF3FC7D0FFF7B7FB01A90C
:1027800002A800F09FFC0028D1D12046FFF71EFDD3
:102790000028C6D02368002BBBD0019904F1240087
:1027A00000F000FC2046FFF76BFD00F0B1FA0028B6
:1027B000C7D1054B4FF080521A60BFF34F8FBFF364
:1027C0006F8FBEE700207DE704ED00E00023072BBC
:1027D0000CD8074A52F833200AB10133F7E7044A0C
:1027E00042F8331002EBC30358607047704700BFD4
:1027F0007831012070B504460D461646FFF754FBAC
:1028000094F844305BB2B3F1FF3F0DD094F84530FB
:102810005BB2B3F1FF3F0BD0FFF768FBA36B5BB17B
:102820002046FFF72DFD70BD002384F84430EDE70E
:10283000002384F84530EFE73246294604F12400AE
:1028400000F0C8FBECE70000084B1B681B683BB1BD
:10285000064B1B68DB68DB685A68054B1A607047DB
:10286000034B4FF0FF321A60704700BF0830012061
:10287000B830012010B50446006BFFF773FA20460C
:10288000FFF770FA10BD2DE9F04781460D46174657
:102890009A46089EDDF824800A9C9200A521206BB0
:1028A00001F0DDF9236B07F18042013A03EB820767
:1028B00027F007070023092B07D8E956E21882F80A
:1028C0003410EA560AB10133F5E7002384F83D30AD
:1028D000042E00D90426E662A6640025E564201DC6
:1028E000FFF729FC04F11800FFF725FC2461C6F16D
:1028F0000506A6616462256584F85450524649462F
:102900003846FFF797FA2060B8F1000F01D0C8F8F9
:102910000040BDE8F087000038B5002407E004EB74
:10292000840293000E481844FFF7FAFB0134042C8C
:10293000F5D90C4D2846FFF7F3FB0B4C2046FFF76B
:10294000EFFB0A48FFF7ECFB0948FFF7E9FB0948F2
:10295000FFF7E6FB084B1D60084B1C6038BD00BF4D
:10296000103001208C300120A0300120C030012027
:10297000EC300120D8300120083001200C3001203B
:1029800010B50446FFF790FA214A1368013313602B
:10299000204B1B685BB1204B1B686BB91D4B1B6840
:1029A000DA6AE36A9A4207D81A4B1C6004E0194BB2
:1029B0001C601368012B27D0184A13680133136079
:1029C0002364E36A01229A401549086802430A60B9
:1029D00003EB83039A00211D12481044FFF7AEFB5E
:1029E000FFF784FA0C4B1B686BB10A4B1B68DA6A61
:1029F000E36A9A4207D20C4B4FF080521A60BFF341
:102A00004F8FBFF36F8F10BDFFF786FFD4E700BF76
:102A10007430012004300120D430012084300120A2
:102A2000883001201030012004ED00E070B504462C
:102A30000E461D4B1D681D4B18680430FFF7A4FBA4
:102A400050B91A4B1B68DA6A012303FA02F21849DB
:102A50000B6823EA02030B60B4F1FF3F13D02C4450
:102A6000124B1B685C60A54216D8124B18680F4BBE
:102A700019680431FFF76EFB0F4B1B68A34212D994
:102A80000D4B1C600FE0002EE9D0084B1968043193
:102A90000A48FFF753FB06E0094B1868034B196817
:102AA0000431FFF757FB70BD0031012004300120D5
:102AB0008830012008300120B8300120D8300120B2
:102AC0000C3001202DE9F04385B0074688461546B5
:102AD00099469000FFF7B8F8F8B106465820FFF77E
:102AE000B3F80446A8B10663D4B10023039302945B
:102AF0000D9B01930C9B00934B462A46414638465A
:102B0000FFF7C1FE2046FFF73BFF012005B0BDE8FF
:102B1000F0833046FFF726F9E6E74FF0FF30F5E7A0
:102B20004FF0FF30F2E7000000B583B0194B01937E
:102B300000230093822218491848FFF7C3FF012899
:102B400007D0012808D0B0F1FF3F1AD003B05DF8DC
:102B500004FB00F045FCF4E74FF0500383F31188C9
:102B6000BFF36F8FBFF34F8F0D4B4FF0FF321A60E3
:102B70000C4B01221A600C4B00221A60FFF72EFA50
:102B8000E4E74FF0500383F31188BFF36F8FBFF377
:102B90004F8FFEE7B4300120D4510008AD2E00085D
:102BA000B8300120D43001200031012008B54FF0A9
:102BB000500383F31188BFF36F8FBFF34F8F034B25
:102BC00000221A60FFF75EF908BD00BFD430012073
:102BD000024A136801331360704700BF8030012040
:102BE000014B1868704700BF00310120F8B53D4B1C
:102BF0001B68002B6ED13C4B1D6801351D60C5B9AB
:102C00003A4B1B681B6843B14FF0500383F31188A4
:102C1000BFF36F8FBFF34F8FFEE7344A1168344B19
:102C2000186810601960334A136801331360FFF7A6
:102C30000BFE314B1B68AB4242D900242F4B1B6863
:102C4000DB6A03EB83039A002D4B9B58012B00D9C1
:102C500001242C4B1B680BB9FEF795FF2A4B1B6810
:102C600003B101242046F8BD0124204B1B681B68DA
:102C700043B31E4B1B68DB68DE6873689D4226D336
:102C8000371D3846FFF780FAB36A1BB106F118000A
:102C9000FFF77AFAF36A01229A401C490868024356
:102CA0000A6003EB83039A00394615481044FFF786
:102CB00045FAF26A114B1B68DB6A9A42D4D2D4E718
:102CC0000024D2E70C4B4FF0FF321A60B6E70A4AF5
:102CD0001360B3E70B4A136801331360FEF753FF29
:102CE0000024BBE7803001200031012008300120A2
:102CF0000C300120BC300120B8300120043001200C
:102D0000103001207C300120043101208830012066
:102D100038B5334B1B6843B94FF0500383F3118828
:102D2000BFF36F8FBFF34F8FFEE7FFF7BDF82C4B5C
:102D30001A68013A1A601B68002B4DD1294B1B6899
:102D400023B90024FFF7D2F8204638BD0024264BD3
:102D50001B681BB3244BDB68DC6804F11800FFF729
:102D600013FA251D2846FFF70FFAE36A01229A405D
:102D70001E49086802430A6003EB83039A00294650
:102D80001B481044FFF7DAF9E26A1A4B1B68DB6A4A
:102D90009A42DCD3184B01221A60D8E70CB1FFF736
:102DA00053FD164B1C6854B1FFF720FF10B1124BB6
:102DB00001221A60013CF7D1104B00221A600E4B21
:102DC0001B685BB10E4B4FF080521A60BFF34F8F00
:102DD000BFF36F8F0124B5E70024B3E70024B1E708
:102DE0008030012074300120C03001208830012063
:102DF0001030012004300120043101207C300120FA
:102E000004ED00E010B5A8B104460F4B1B6843B1B8
:102E10004FF0500383F31188BFF36F8FBFF34F8FD1
:102E2000FEE7FFF7D5FE00212046FFF7FFFDFFF785
:102E30006FFF38B9054B4FF080521A60BFF34F8FC8
:102E4000BFF36F8F10BD00BF8030012004ED00E0A4
:102E5000134B1B6813B310B5FFF7BAFE114B1C6878
:102E6000FFF756FF24B90E4B1B68002BF4D110BDA1
:102E7000FFF71AF80B4BDB68DC68201DFFF784F9BD
:102E8000094A1368013B1360054A1368013B13604C
:102E9000FFF72CF82046FFF7EDFCE4E7704700BF92
:102EA00078300120EC3001207430012008B501E0B9
:102EB000FEF760FEFFF7CCFF064B1B68012BF7D92E
:102EC000054B4FF080521A60BFF34F8FBFF36F8FE7
:102ED000EEE700BF1030012004ED00E02C4B1B6832
:102EE0001BB12C4B01221A60704710B5294B0022F0
:102EF0001A60294B1B681B6B1A68B2F1A53F03D1FE
:102F00005A68B2F1A53F1BD0234B186819683431B9
:102F1000FEF72FFE214B1B68B3FA83F3DBB2C3F13C
:102F20001F0303EB83018A001D498A588AB94FF0B9
:102F3000500383F31188BFF36F8FBFF34F8FFEE70A
:102F40009A68B2F1A53FDFD1DB68B3F1A53FDBD1D1
:102F5000E0E713489A00D418A10001444C68646863
:102F60004C601A44910008310844844209D003EBB4
:102F700083039A000A4B13445B68DA68064B1A60B5
:102F800010BD61680648142202FB03025160EEE79F
:102F900080300120043101200430012088300120DC
:102FA0001030012040B94FF0500383F31188BFF374
:102FB0006F8FBFF34F8FFEE710B50C46044B1968B7
:102FC0001831FFF7C7F801212046FFF72FFD10BD8C
:102FD0000430012038B540B94FF0500383F3118815
:102FE000BFF36F8FBFF34F8FFEE70C461546064ABF
:102FF00011681831FFF7A2F80DB14FF0FF342946E0
:103000002046FFF713FD38BD0430012038B5C368F2
:10301000DC6844B94FF0500383F31188BFF36F8F1E
:10302000BFF34F8FFEE704F118052846FFF7ACF811
:10303000134B1B68E3B9251D2846FFF7A5F8E36A83
:1030400001229A400F49086802430A6003EB830398
:103050009A0029460C481044FFF770F8E26A0B4BBF
:103060001B68DB6A9A4208D90120094B186038BDF9
:1030700029460848FFF762F8F0E70020F7E700BFAD
:1030800080300120883001201030012004300120E0
:1030900004310120C030012030B1084A12680260BA
:1030A000074A1268426070474FF0500383F311885B
:1030B000BFF36F8FBFF34F8FFEE700BFBC3001201F
:1030C0000031012038B550B1044689B94FF05003A2
:1030D00083F31188BFF36F8FBFF34F8FFEE74FF07D
:1030E000500383F31188BFF36F8FBFF34F8FFEE759
:1030F0000D46FEF7D9FE114B19682B68B3F1FF3F5F
:1031000018D020680E4A1268904202D062688A4243
:1031100012D96268881A834204D80124FEF7E6FEB9
:10312000204638BD521A13442B602046FFF7B4FFE7
:103130000024F3E70024F1E70124EFE70031012048
:10314000BC300120014B01221A607047043101207C
:10315000054B1B6833B1054B1B680BB10020704752
:103160000220704701207047D430012080300120B8
:10317000002845D038B50446C26A22490968C96AA0
:103180008A4214D28169002905DB1E490968C96A8F
:10319000C1F105018161606902EB820291001A4A66
:1031A0000A44904204D0174A1268D26AE26238BDDB
:1031B000251D2846FEF7E8FF90B1124B1B68DB6A1D
:1031C000E36201229A401149086802430A6003EB56
:1031D00083039A0029460C481044FEF7AFFFE6E748
:1031E000E36A03EB83018A0007498A58002AE4D185
:1031F00001229A4005490B6823EA02030B60DCE7D1
:10320000704700BF043001201030012088300120B9
:10321000002849D038B50446264A1268824208D0B0
:103220004FF0500383F31188BFF36F8FBFF34F8FBD
:10323000FEE7C26C42B94FF0500383F31188BFF32D
:103240006F8FBFF34F8FFEE7013AC264C06AA16C73
:1032500088422BD062BB251D2846FEF795FF70B92A
:10326000E26A142303FB02F31349CB583BB9012351
:1032700003FA02F211490B6823EA02030B60A36C04
:10328000E362C3F10502A261012404FA03F20B49CF
:10329000086802430A602946074A142000FB0320FD
:1032A000FEF74CFF204638BD002070470020FAE7AB
:1032B0000020F8E704300120103001208830012080
:1032C000054B1B6823B1044B1A68D36C0133D364DC
:1032D000014B1868704700BF04300120064B1A6884
:1032E0001368B3FA83F35B09036013B9D3681868F2
:1032F00070470020704700BF0831012008B54160C9
:10330000006191420CD8D21A83699A4201D30120FC
:1033100010E0011D094B1868FEF71CFF002009E0B2
:103320009A4201D2994206D2011D054B1868FEF758
:1033300011FF002008BD0120FCE700BF0C31012077
:103340000831012038B5FEF7AFFD0F4B1B6813B1F4
:10335000FEF7CCFD38BD0D4D2846FEF7E1FE0C4CC6
:103360002046FEF7DDFE0B4B1D600B4B1C60002260
:103370000C210A20FFF70FF8034B18600028E7D054
:103380000649FFF723FAE3E73C3101201031012021
:1033900024310120083101200C310120DC510008CA
:1033A0002DE9F041079C41B94FF0500383F3118898
:1033B000BFF36F8FBFF34F8FFEE70F4674B11D460B
:1033C00016468046FFF7BEFFC4F80080A761E6619D
:1033D0002562069B6362201DFEF7ADFEBDE8F0810D
:1033E00000B583B0FFF7AEFF0D4B1B685BB10D4B13
:1033F00001930223009300234FF482720A490B4881
:10340000FFF760FB40B94FF0500383F31188BFF31F
:103410006F8FBFF34F8FFEE703B05DF804FB00BF73
:103420003C31012040310120E45100082D370008D3
:103430002DE9F04182B005460E46174698462C20ED
:10344000FEF702FC044640B10190089B00934346FE
:103450003A4631462846FFF7A3FF204602B0BDE8B2
:10346000F0810000C8B130B585B015460446174A52
:10347000106840B31A4601910295039405291DDC9A
:10348000FFF766FE022811D000231A4601A90F4853
:103490000068FEF7A5FF05B030BD4FF0500383F381
:1034A0001188BFF36F8FBFF34F8FFEE70023089A99
:1034B00001A906480068FEF793FFECE7002301A985
:1034C000FFF74CF8E7E70020E5E700BF3C310120BB
:1034D00070B582B01A4B1B681A6852B3DB681E685D
:1034E000DC68251D2846FEF74FFE636A2046984794
:1034F000E369012BEED1A36933449E4207D2636096
:10350000246129460E4B1868FEF724FEE2E70021ED
:1035100000910B4632462046FFF7A4FF0028D9D180
:103520004FF0500383F31188BFF36F8FBFF34F8FBA
:10353000FEE7044A106802490860136002B070BDDB
:10354000083101200C31012038B50546FFF748FB52
:103550000446074B1B68834205D800232B60044BAD
:103560001C60204638BDFFF7B3FF01232B60F6E750
:103570003831012070B582B005460E46144B1B68E9
:10358000DB68DC68201DFEF7FFFDE369012B04D03A
:10359000636A2046984702B070BDA1692B46324647
:1035A00029442046FFF7AAFE0028F1D0002100910F
:1035B0000B462A462046FFF755FF0028E8D14FF07A
:1035C000500383F31188BFF36F8FBFF34F8FFEE774
:1035D0000831012070B582B006460C46FFF7F8FAB4
:1035E00001A8FFF7B1FF019B1BBB05460CB9B04218
:1035F00018D22CB1114B1B681C68B4FA84F464090E
:103600002246711B0E4B1868FFF7F4F8FFF780FB9A
:1036100088B90C4B4FF080521A60BFF34F8FBFF345
:103620006F8F08E0FFF774FB29463046FFF7A2FFD3
:1036300001E0FFF76DFB02B070BD00BF0C3101204F
:103640003C31012004ED00E030B587B000231A467C
:1036500003A935480068FEF7E7FF002861D0039B07
:10366000002BF3DB059C636913B1201DFEF78CFD75
:1036700002A8FFF769FF039B092BE7D801A252F8C4
:1036800023F000BFAD360008AD360008AD360008A7
:103690004D360008F53600081B370008AD36000827
:1036A000AD3600084D360008F53600080499A569C6
:1036B0000B46024629442046FFF720FE0028C5D0CD
:1036C000636A20469847E369012BBFD1A2690021B4
:1036D00000910B46049802442046FFF7C3FE0028E1
:1036E000B4D14FF0500383F31188BFF36F8FBFF352
:1036F0004F8FFEE70499A16131B1034602460144B0
:103700002046FFF7FBFDA1E74FF0500383F311883C
:10371000BFF36F8FBFF34F8FFEE72046FEF722FB0C
:1037200094E707B030BD00BF3C31012000B583B045
:1037300001A8FFF7D3FD0199FFF74CFFFFF784FFC6
:10374000F6E740B94FF0500383F31188BFF36F8F52
:10375000BFF34F8FFEE710B50446FEF7A5FB246AC2
:10376000FEF7C4FB204610BD53B94AB9002908BF73
:1037700000281CBF4FF0FF314FF0FF3000F072B94E
:10378000ADF1080C6DE904CE00F006F8DDF804E0B8
:10379000DDE9022304B070472DE9F047089E044696
:1037A0008846002B4BD18A42154667D9B2FA82F27D
:1037B0004AB1C2F1200701FA02F320FA07F7954057
:1037C00047EA030894404FEA154E230CB8FBFEF776
:1037D0001FFA85FC0EFB178843EA084307FB0CF130
:1037E000994209D9EB1807F1FF3080F01B8199420B
:1037F00040F21881023F2B445B1AA4B2B3FBFEF0E7
:103800000EFB103344EA034400FB0CFCA44509D929
:103810002C1900F1FF3380F00781A44540F20481A8
:1038200002382C4440EA0740A4EB0C0400271EB1E8
:10383000D4400023C6E900433946BDE8F0878B42F7
:1038400009D9002E00F0EB800027C6E900013846B8
:103850003946BDE8F087B3FA83F7002F47D18B4292
:1038600002D3824200F2FA80841A61EB0303012042
:103870009846002EE0D0C6E90048DDE702B9FFDE39
:10388000B2FA82F2002A40F08F80491B4FEA154EAF
:103890001FFA85F80127B1FBFEFC230C0EFB1C115F
:1038A00043EA014308FB0CF1994207D9EB180CF1EC
:1038B000FF3002D2994200F2CD808446591AA3B259
:1038C000B1FBFEF00EFB101443EA044408FB00F8C1
:1038D000A04507D92C1900F1FF3302D2A04500F210
:1038E000B6801846A4EB080440EA0C409FE7C7F1F5
:1038F000200CBB4022FA0CFE4EEA030E01FA07F43C
:1039000020FA0CF521FA0CF34FEA1E482543B3FBCD
:10391000F8F92C0C08FB19331FFA8EFA44EA03431A
:1039200009FB0AF49C4202FA07F200FA07F10BD9EC
:103930001EEB030309F1FF3080F087809C4240F2C8
:103940008480A9F1020973441B1BADB2B3FBF8F0EC
:1039500008FB103345EA034400FB0AFAA24508D9E4
:103960001EEB040400F1FF336BD2A24569D9023883
:10397000744440EA0940A0FB0289A4EB0A044C45C8
:10398000C2464B4654D351D0002E69D0B1EB0A0544
:1039900064EB030404FA0CFCFD40FC404CEA050512
:1039A000C6E90054002747E7C2F1200320FA03F7D5
:1039B000954001FA02F021FA03F34FEA154E38431D
:1039C000010CB3FBFEF71FFA85F80EFB173341EA33
:1039D000034107FB08F38B4204FA02F407D9691884
:1039E00007F1FF3C2FD28B422DD9023F2944CB1A3D
:1039F00081B2B3FBFEF00EFB103341EA034100FB42
:103A000008F38B4207D9691800F1FF3C17D28B42AB
:103A100015D902382944C91A40EA07473BE7374617
:103A2000304609E70746E7E61846FBE64145ABD2D4
:103A3000B8EB020A69EB0E0201381346A4E76046B0
:103A4000E9E7184695E76746D1E781467CE7023803
:103A50002C4447E7ACF1020C2B442FE7384608E72B
:103A60003746E9E6704700BF014B1868704700BF52
:103A700044000020002310B50446C0E900338360F1
:103A800081814366C281C0E90433836119460822FB
:103A90005C3000F0E4F8054B6362054BA362054B14
:103AA000E362054B2462236310BD00BF0D3F000895
:103AB0002F3F0008673F00088B3F0008014900F0D6
:103AC00085B800BF0943000870B54A1E68255543F4
:103AD0000E4605F1740100F0CBF8044640B1002118
:103AE000C0E900160C30A06005F1680200F0B7F8DC
:103AF000204670BD836910B5044633BBC0E912335C
:103B00000365124B124A1B688262984204BF01236C
:103B1000836100F01FF86060204600F01BF8A06091
:103B2000204600F017F80022E06004216068FFF7EB
:103B3000A1FF01220921A068FFF79CFF02221221A8
:103B4000E068FFF797FF0123A36110BD4C52000806
:103B5000BD3A0008F8B51B4B1E68B369074613B998
:103B60003046FFF7C7FF4836D6E90134013B03D59D
:103B7000336833B13668F7E7B4F90C506DB1683487
:103B8000F4E704213846FFF79FFF30600028F1D1A9
:103B90000C233B6004462046F8BD0B4B6566C4E928
:103BA0000055A560C4E90335C4E905550822294636
:103BB00004F15C0000F053F8C4E90D55C4E9125556
:103BC000E9E700BF4C5200080100FFFF2DE9F84370
:103BD0008046894600F14804002614B93046BDE805
:103BE000F883D4E90175013F01D52468F5E7AB8975
:103BF000012B07D9B5F90E30013303D029464046D1
:103C0000C84706436835EEE7044B054A1B681B6A44
:103C1000002B08BF1346D3F8EC0070474400002087
:103C2000A800002082B001B901A942B14BB11378BC
:103C30000B601278101C18BF012002B070471046AC
:103C4000FBE76FF00100F8E710B5431E0A4491420C
:103C500000D110BD11F8014B03F8014FF7E7024402
:103C60000346934200D1704703F8011BF9E70000B7
:103C700070B5CD1C25F0030508350C2D38BF0C257B
:103C8000002D064601DBA94203D90C233360002036
:103C900070BD00F0E1FB214A1468214691B9204C27
:103CA00023681BB9304600F0EDF820602946304605
:103CB00000F0E8F8431C24D10C233360304600F0B8
:103CC000CCFBE4E70B685B1B18D40B2B0FD90B6004
:103CD000CD50CC18304600F0C0FB04F10B00231D82
:103CE00020F00700C31AD3D05A42E250D0E78C42EA
:103CF0004B6816BF636013600C46EBE70C464968DF
:103D0000CCE7C41C24F00304A04205D0211A30469D
:103D100000F0B8F80130CFD02560DBE74431012056
:103D2000483101200FB40A4B13B51C6824B1A369B4
:103D300013B92046FFF7DEFE05AB049AA168019394
:103D4000204600F053FD02B0BDE8104004B07047BB
:103D50004400002070B50E46054618B183690BB9C2
:103D6000FFF7C8FEAB69AC6813B92846FFF7C2FE7F
:103D7000234B9C4217D16C68A3891B071DD523696F
:103D8000DBB1013EA36816F8011F013BA360E9B94E
:103D9000002B2EDA22460A21284600F03FF9013096
:103DA00011D00A2011E0174B9C4201D1AC68E3E727
:103DB000154B9C4208BFEC68DEE72146284600F020
:103DC0009FF90028DDD04FF0FF3070BD002B04DAE2
:103DD000A2699A4206DC0A2904D023685A1C226090
:103DE0001970CFE72246284600F018F90130C9D1F2
:103DF000E9E723680A205A1C22601870E5E700BF33
:103E00000C5200082C520008EC510008024B0146ED
:103E10001868FFF79FBF00BF4400002038B5134B60
:103E20001C68A36B7BB9182000F00EFB104A114BE5
:103E3000A063C0E90023104B83600B238381012220
:103E40000023C0E90423A16B0C480A694B690C4CA0
:103E5000504304FB0300A2FB04230344541C43F11E
:103E60000005C1E9044525F0004038BD44000020AC
:103E70000E33CDAB34126DE6ECDE05002DF4515857
:103E80002D7F954C38B5064C002305460846236027
:103E9000FCF796FF431C02D1236803B12B6038BDA9
:103EA000503101200CB430B5174B0C1E9DB01D686D
:103EB00008DA8B232B604FF0FF301DB0BDE8304097
:103EC00002B070474FF40273ADF8143014BF04F120
:103ED000FF332346049307934FF6FF730290069037
:103EE000ADF81630209A21AB02A92846019300F0C4
:103EF0005DFB431CBCBF8B232B60002CDDD0029BE1
:103F000000221A70D9E700BF4400002010B50C460B
:103F1000B1F90E1000F006FF0028ABBF636DA38956
:103F20001B1823F48053ACBF6365A38110BD2DE93A
:103F3000F0411F468B89DB0505460C46164605D524
:103F400002230022B1F90E1000F008FAA389B4F997
:103F50000E1023F48053A38132463B462846BDE829
:103F6000F04100F0BBB810B50C46B1F90E1000F0EE
:103F7000F5F9431CA38915BF606523F4805343F40E
:103F80008053A38118BFA38110BDB1F90E1000F0BA
:103F900025B910F8012B11F8013B012A28BF9A42DC
:103FA000F7D0D01A704730B5141E05469BB018469E
:103FB00005DA8B232B604FF0FF301BB030BD4FF480
:103FC0000273ADF80C3014BF04F1FF3323460293A3
:103FD00005934FF6FF7300910491ADF80E30024641
:103FE0001E9B6946284600F0E1FA431CBCBF8B23A8
:103FF0002B60002CE1D0009B00221A70DDE700004E
:1040000007B5009313460A46014603480068FFF7C8
:10401000CAFF03B05DF804FB44000020F8B50E466B
:104020001446054618B183690BB9FFF763FD214BB0
:104030009C422AD16C68A369A360A3891A072ED574
:10404000236963B323692068C01A6369F6B28342A7
:10405000374604DC2146284600F056F928BBA36801
:10406000013BA36023685A1C22601E706369013003
:10407000834204D0A389DB0719D50A2E17D1214624
:10408000284600F041F990B10FE00B4B9C4201D162
:10409000AC68D0E7094B9C4208BFEC68CBE72146EF
:1040A000284600F02DF80028CCD04FF0FF373846D6
:1040B000F8BD00BF0C5200082C520008EC5100085B
:1040C00049B1FF2A85BF8A2303600A704FF0FF3091
:1040D00098BF0120704708467047000038B5074C6C
:1040E000054608461146002222601A46FDF72AF8C6
:1040F000431C02D1236803B12B6038BD503101202D
:10410000324B70B51D6806460C4625B1AB6913B934
:104110002846FFF7EFFC2E4B9C420FD16C68B4F998
:104120000C309AB215072CD4D00611D40922326073
:1041300043F04003A3814FF0FF303EE0254B9C420B
:1041400001D1AC68EBE7244B9C4208BFEC68E6E782
:10415000510712D5616B41B104F14403994202D079
:10416000304600F07BF900236363A38923F0240326
:10417000A3810023636023692360A38943F00803BC
:10418000A38123694BB9A38903F42073B3F5007F9E
:1041900003D02146304600F017F9A28912F001033E
:1041A0000CD00023A36063695B42A361236953B908
:1041B000B4F90C3013F08000BAD170BD920758BF2B
:1041C0006369A360F2E70020F7E700BF4400002026
:1041D0000C5200082C520008EC51000838B5064C6F
:1041E0000023054608462360FCF7DEFF431C02D18E
:1041F000236803B12B6038BD503101208A892DE935
:10420000F041054610070C4658D44B68002B05DCDE
:104210000B6C002B02DC0020BDE8F081E66A002E6A
:10422000F9D0002312F480522F68216A2B6032D01B
:10423000606DA3895A0705D56368C01A636B0BB11B
:10424000236CC01A00230246E66A216A2846B0475A
:10425000431CA38906D129681D2948D8294ACA4088
:10426000D60744D500226260D9042269226004D5B1
:10427000421C01D12B6803B96065616B2F60002976
:10428000C9D004F14403994202D0284600F0E6F870
:1042900000206063C0E701232846B047411CC8D115
:1042A0002B68002BC5D01D2B01D0162B01D12F6000
:1042B000B1E7A38943F04003A381ADE70F69002F65
:1042C000A9D093070E6808BF4B690F6018BF002381
:1042D000A6EB07088B60B8F1000F9CDD43463A4619
:1042E000216AA66A2846B047002806DCA38943F065
:1042F0004003A3814FF0FF308EE70744A8EB00088E
:10430000E9E700BF0100402038B50B6905460C46BF
:10431000DBB118B183690BB9FFF7ECFB0C4B9C4286
:1043200009D16C68B4F90C307BB121462846BDE850
:104330003840FFF763BF074B9C4201D1AC68F1E7FF
:10434000054B9C4208BFEC68ECE7002038BD00BF7D
:104350000C5200082C520008EC51000838B5074CEC
:10436000054608461146002222601A46FCF7D6FE92
:10437000431C02D1236803B12B6038BD50310120AA
:1043800070B50E46B1F90E10002996B014461D46C0
:1043900007DA00232B60B3891A0610D44FF4806328
:1043A0000EE06A4600F0D0FC0028F2DB019A02F42D
:1043B0007042A2F500535A425A412A60EEE7402368
:1043C0000020236016B070BD8B8973B59D0706462B
:1043D0000C4607D504F14703236023610123636181
:1043E00002B070BD01AB6A46FFF7CAFF00990546EF
:1043F0003046FFF73DFC48B9B4F90C309A05EFD4CC
:1044000023F0030343F00203A381E3E70D4BB36200
:10441000A389206043F08003A381009B6361019B1B
:1044200020615BB1B4F90E10304600F09FFC28B15A
:10443000A38923F0030343F00103A381A3891D4350
:10444000A581CDE7BD3A0008024B01461868FFF789
:104450000FBC00BF440000207047704738B50546C8
:10446000002945D051F8043C0C1F002BB8BFE418BC
:10447000FFF7F2FF1F4A1368104633B963601460F8
:104480002846BDE83840FFF7E8BFA3420CD92168B1
:104490006218934204BF1A685B68636004BF5218D5
:1044A00022600460ECE713465A680AB1A242FAD9C6
:1044B00019685818A0420BD120680144581882424C
:1044C0001960DDD1106852685A6001441960D7E75D
:1044D00002D90C232B60D3E7206821188A4204BF3D
:1044E00011685268626004BF091821605C60C7E708
:1044F00038BD00BF443101202DE9F0478E689E424F
:1045000082460C469046994637D88A8912F4906FB5
:1045100031D0256809696F1A6569022305EB4505E5
:1045200095FBF3F509F101033B449D4238BF1D465D
:10453000530530D52946FFF79BFB064650B90C239F
:10454000CAF80030A38943F04003A3814FF0FF3045
:10455000BDE8F0873A462169FFF776FBA38923F48B
:10456000906343F08003A381266165613E44ED1BA7
:104570002660A5604E464E4500D94E46324641461D
:10458000206800F055FCA3689B1BA36023681E44B1
:1045900026600020DCE72A4600F063FC064600287F
:1045A000E2D121695046FFF759FFC8E72DE9F04FE6
:1045B0009DB0804603938B891D060C4616460FD589
:1045C0000B696BB94021FFF753FB2060206128B9CC
:1045D0000C23C8F800304FF0FF30C7E04023636180
:1045E0000023099320238DF8293030238DF82A30B9
:1045F0004FF0010B37463D4615F8013B0BB1252B1B
:104600003ED1B7EB060A0BD0534632462146404610
:10461000FFF772FF013000F0A480099B5344099317
:104620003B78002B00F09D8000234FF0FF32CDE956
:104630000523049307938DF853301A932F460522D0
:1046400017F8011B4F4800F0A3FB049BD0B9D90613
:1046500044BF20228DF853201A0744BF2B228DF827
:1046600053202A782A2A15D0079A2F4600200A2597
:10467000394611F8013B303B092B4DD9B8B10FE059
:104680002F46B8E73F4A801A0BFA00F0184304900F
:104690003D46D3E7039A111D12680391002A01DBFE
:1046A000079204E0524243F00203079204933B78DE
:1046B0002E2B0CD17B782A2B33D1039B1A1D1B6820
:1046C0000392002BB8BF4FF0FF33023705932E4DF6
:1046D00039780322284600F05BFB38B14023401BA9
:1046E00003FA00F0049B0343013704933978274809
:1046F0008DF8281006227E1C00F04AFB002838D0D6
:10470000234B13BB039B073323F0070308330393A7
:10471000099B4B4409936DE705FB023201200F46CC
:10472000A6E700230137059319460A25384610F8F5
:10473000012B303A092A03D9002BC8D00591C6E7CE
:1047400005FB012101230746F0E703AB0093224656
:10475000104B04A94046AFF30080B0F1FF3F814603
:10476000D6D1A3895B063FF536AF09981DB0BDE8E9
:10477000F08F03AB00932246064B04A9404600F09D
:10478000BFF9EAE75B53000861530008655300086E
:1047900000000000F94400089368013B002B10B4AE
:1047A000936008DA9469A34201DB0A2903D15DF81A
:1047B000044BFFF733BC1368581C1060197008468F
:1047C0005DF8044B7047F8B506460F461446D518F9
:1047D000AC4201D1002007E03A4614F8011B3046F4
:1047E000FFF7DAFF431CF3D1F8BD00002DE9F04FCD
:1047F0009DB00C4617460393064618B183690BB962
:10480000FFF778F97B4B9C4257D17468A38918074E
:104810005DD52369002B5AD00023099320238DF8FE
:10482000293030238DF82A304FF0010BB846454629
:1048300015F8013B0BB1252B54D1B8EB070A0BD06F
:1048400053463A4621463046FFF7BDFF013000F09F
:10485000C280099B5344099398F80030002B00F064
:10486000BA8000234FF0FF32CDE90523049307936C
:104870008DF853301A93A846052218F8011B5E489C
:1048800000F086FA049B78BBD90644BF20228DF83D
:1048900053201A0744BF2B228DF853202A782A2A46
:1048A0002AD0079AA84600200A25414611F8013B64
:1048B000303B092B69D960B324E0504B9C4201D1B5
:1048C000B468A3E74E4B9C4208BFF4689EE72146BC
:1048D0003046FFF715FC00289ED04FF0FF301DB08A
:1048E000BDE8F08FA846A2E7434A801A0BFA00F011
:1048F000184304904546BEE7039A111D12680391C0
:10490000002A01DB079204E0524243F002030792BF
:10491000049398F800302E2B0ED198F801302A2BF2
:1049200038D1039B1A1D1B680392002BB8BF4FF0B0
:10493000FF3308F102080593324D98F80010032266
:10494000284600F025FA40B14023401B03FA00F04E
:10495000049B034308F10108049398F800102A48C7
:104960008DF82810062208F1010700F011FA00283E
:1049700037D0264B1BBB039B073323F007030833B9
:104980000393099B4B44099350E705FB0232012036
:1049900088468AE7002308F10108059319460A258D
:1049A000404610F8012B303A092A03D9002BC3D016
:1049B0000591C1E705FB012101238046F0E703AB28
:1049C00000932246124B04A93046AFF30080B0F1A9
:1049D000FF3F8146D5D1A3895B063FF57EAF09989D
:1049E0007DE703AB00932246094B04A9304600F053
:1049F00087F8ECE70C5200085B5300082C520008C3
:104A0000EC510008615300086553000800000000E5
:104A1000C74700082DE9F04791461F468A680B6991
:104A2000DDF820809342B8BF1346C9F8003091F8F2
:104A3000432006460C4612B10133C9F80030236802
:104A4000990642BFD9F800300233C9F80030256812
:104A500015F0060507D104F1190AE368D9F800201A
:104A60009B1AAB4228DC94F843302268003318BF0D
:104A7000012392062DD404F1430239463046C04743
:104A8000013020D02368E568D9F8002003F0060340
:104A9000042B08BFAD1AA36822690CBF25EAE5758F
:104AA00000259342C4BF9B1AED184FF000091A3439
:104AB0004D451AD1002008E00123524639463046C0
:104AC000C047013003D14FF0FF30BDE8F08701351A
:104AD000C3E7E1185A1C302081F84300224494F8BF
:104AE000451082F843100233C5E7012322463946B8
:104AF0003046C0470130E6D009F10109D8E700008F
:104B00002DE9F04301F1430C0C46097E85B06E2976
:104B10001746064698460C9A00F0B38022D86329BF
:104B200036D00AD8002900F0B980582900F08380D7
:104B300004F1420584F8421032E0642901D0692969
:104B4000F6D120681368050603F104012AD51B6815
:104B50001160002B03DA2D225B4284F843206F485A
:104B60000A2239E0732900F09D8008D86F2920D0EF
:104B70007029DDD1236843F02003236003E0752909
:104B800017D07829D4D1782384F84530644855E08B
:104B90001368191D1B68116004F1420584F8423046
:104BA00001238CE01B68116010F0400F18BF1BB28E
:104BB000CFE713682568181D1060280601D51B680B
:104BC00002E06806FBD51B8854486F2914BF0A22EF
:104BD0000822002184F843106568A560002DC0F20A
:104BE0009580216821F004012160002B3DD1002D2A
:104BF00040F08E806546082A0BD12368DB0708D574
:104C0000236962689A42DEBF302305F8013C05F152
:104C1000FF35ACEB05032361CDF800803B4603AACA
:104C200021463046FFF7F6FE01304DD14FF0FF3000
:104C300005B0BDE8F083394884F845101368216851
:104C40001D1D1B6815600A060BD5CA0744BF41F03D
:104C5000200121601BB9226822F02002226010226C
:104C6000B7E74D0648BF9BB2EFE76546B3FBF2F1ED
:104C700002FB1133C35C05F8013D0B460029F5D159
:104C8000B9E7136825686169181D106028061B685C
:104C900001D5196002E06A06FBD519800023236163
:104CA0006546B9E71368191D11601D686268002127
:104CB000284600F06DF808B1401B6060636823610E
:104CC000002384F84330A7E723692A463946304653
:104CD000C0470130AAD023689B0713D4E068039B28
:104CE0009842B8BF1846A3E701234A4639463046E2
:104CF000C04701309AD00135E368039A9B1AAB4252
:104D0000F2DCEBE7002504F11909F5E7002BACD143
:104D1000037884F8423004F142056CE76C530008D4
:104D20007D53000838B5074C054608461146002259
:104D300022601A46FCF77CF9431C02D1236803B1B8
:104D40002B6038BD5031012038B5074C0023054693
:104D5000084611462360FCF76FFA431C02D1236812
:104D600003B12B6038BD00BF5031012038B5064C6F
:104D70000023054608462360FCF76BFA431C02D16A
:104D8000236803B12B6038BD5031012000000000C2
:104D900001F0FF01102A2BDB10F0070F08D010F8EC
:104DA000013B013A8B422DD010F0070F42B3F6D1F0
:104DB000F0B441EA012141EA014122F007047FF009
:104DC00000070023F0E80256083C85EA010586EA60
:104DD000010685FA47F5A3FA87F586FA47F6A5FA9C
:104DE00087F68EB9EED1F0BC01F0FF0102F00702A8
:104DF00032B110F8013B013A83EA010313B1F8D153
:104E00000020704701387047002D06BF3546033833
:104E1000073815F0010F07D1013015F4807F02BF6C
:104E2000013015F4C03F0130F0BC0138704700BFBD
:104E3000884210B501EB020307D8421E99420AD0FE
:104E400011F8014B02F8014FF8E78342F5D98118B8
:104E5000D21AD34200D110BD13F8014D01F8014D13
:104E6000F7E7F8B5074614460E4621B91146BDE8E6
:104E7000F840FEF7FDBE22B9FFF7F0FA25462846B6
:104E8000F8BD00F014F8A0420FD221463846FEF7D4
:104E9000EFFE05460028F2D031462246FEF7D4FE4A
:104EA00031463846FFF7DAFAE9E73546E7E751F8E1
:104EB000043C181F002BBCBF0B58C01870470000E3
:104EC0002E2E2F73797374656D2F7372632F737425
:104ED0006D333266342D68616C2F73746D333266B6
:104EE0003478785F68616C5F636F727465782E6385
:104EF000000000002E2E2F73797374656D2F73726E
:104F0000632F73746D333266342D68616C2F737444
:104F10006D3332663478785F68616C5F7263632EDC
:104F2000630000003A747400537461636B2066720E
:104F3000616D653A0A000000205230203D20202596
:104F40003038580A00000000205231203D20202532
:104F50003038580A00000000205232203D20202521
:104F60003038580A00000000205233203D20202510
:104F70003038580A0000000020523132203D2025F0
:104F80003038580A00000000204C52203D202025D7
:104F90003038580A00000000205043203D202025D2
:104FA0003038580A0000000020505352203D202580
:104FB0003038580A000000004653522F4641523AFA
:104FC0000A0000002043465352203D20202530385F
:104FD000580A00002048465352203D2020253038F2
:104FE000580A00002044465352203D2020253038E6
:104FF000580A00002041465352203D2020253038D9
:10500000580A0000204D4D464152203D20253038A1
:10501000580A00002042464152203D2020253038C9
:10502000580A00004D6973630A000000204C522F9B
:105030004558435F52455455524E3D20253038580F
:105040000A0000005B486172644661756C745D0A19
:10505000000000005B4275734661756C745D0A0068
:105060005B55736167654661756C745D0A0000008D
:105070000000000000000000010203040607080908
:1050800057726F6E6720706172616D6574657273BF
:105090002076616C75653A2066696C652025732001
:1050A0006F6E206C696E652025640D0A000000009B
:1050B00053656E6465725461736B310053656E6441
:1050C00065725461736B320053656E646572486932
:1050D00067680000526563656976657200000000CC
:1050E00053656E64657254696D657231000000002D
:1050F00053656E64657254696D657232000000001C
:1051000053656E64657254696D65724869676800BD
:10511000526563656976657254696D657200000059
:1051200052656365697665643A2025730A0000005C
:10513000537461746973746963733A0053656E6480
:10514000657231202D2053656E743A20256C752CC4
:1051500020426C6F636B65643A20256C750A000011
:1051600053656E64657232202D2053656E743A204B
:10517000256C752C20426C6F636B65643A20256C3E
:10518000750A000053656E64657248696768202D72
:105190002053656E743A20256C752C20426C6F6329
:1051A0006B65643A20256C750A00000052656365E2
:1051B000697665643A20256C750A000047616D6563
:1051C000204F76657200000054696D652069732078
:1051D000256C750049444C4500000000546D725127
:1051E00000000000546D7220537663000000000040
:1051F00000000000000000000000000000000000AF
:10520000000000000000000000000000000000009E
:10521000000000000000000000000000000000008E
:10522000000000000000000000000000000000007E
:10523000000000000000000000000000000000006E
:1052400000000000000000000000000048000020F6
:105250004300504F534958002E00002020202020AA
:105260002020202028282828282020202020202016
:105270002020202020202020202020881010101006
:10528000101010101010101010101004040404045A
:105290000404040404101010101010104141414186
:1052A000414101010101010101010101010101016E
:1052B0000101010101011010101010104242424280
:1052C000424202020202020202020202020202023E
:1052D0000202020202021010101020000000000062
:1052E00000000000000000000000000000000000BE
:1052F00000000000000000000000000000000000AE
:10530000000000000000000000000000000000009D
:10531000000000000000000000000000000000008D
:10532000000000000000000000000000000000007D
:10533000000000000000000000000000000000006D
:10534000000000000000000000000000000000005D
:105350000000000000000000000000232D302B2082
:1053600000686C4C00656667454647003031323353
:1053700034353637383941424344454600303132BE
:0E538000333435363738396162636465660050
:0853900008E4FF7F01000000AA
:105398007856341201FFFFFF100000000024F400CB
:1053A80032000000500000006E0000008C00000079
:1053B800AA000000C800000096000000C800000015
:1053C800FA0000002C0100005E01000090010000BE
:1053D800AAAAAAAA48000020000000000C5200084F
:1053E8002C520008EC5100080000000000000000EA
:1053F80000000000000000000000000000000000A5
:105408000000000000000000000000000000000094
:105418000000000000000000000000000000000084
:105428000000000000000000000000000000000074
:105438000000000000000000430000000000000021
:105448000000000000000000000000000000000054
:105458000000000000000000430000000000000001
:105468000000000000000000000000000000000034
:1054780000000000000000004300000000000000E1
:105488000000000000000000000000000000000014
:1054980000000000000000004300000000000000C1
:1054A80000000000000000000000000000000000F4
:1054B80000000000000000004300000000000000A1
:1054C80000000000000000000000000000000000D4
:1054D8000000000000000000430000000000000081
:1054E80000000000000000000000000000000000B4
:1054F8000000000000000000430000000000000061
:105508000000000000000000000000000000000093
:105518000000000000000000C1400008253C000811
:10552800000000005A520008585200086053000852
:105538006053000860530008605300086053000877
:105548006053000860530008605300086053000867
:10555800FFFFFFFFFFFFFFFFFFFFFFFFFFFF000051
:1055680001004153434949000000000000000000C9
:105578000000000000000000000000000000000023
:1055880000004153434949000000000000000000AA
:105598000000000000000000000000000000000003
:0855A800000000003254769867
:040000050800018965
:00000001FF
